:020000040800F2
:100000000000012061020008650200086702000884
:100010007D0200087F020008950200080000000031
:10002000000000000000000000000000AB0200081B
:10003000AD02000800000000AF020008A50B000898
:10004000C5020008C5020008C5020008C502000874
:10005000C5020008C5020008C5020008C502000864
:10006000C5020008C5020008C5020008C502000854
:10007000C5020008C5020008C5020008C502000844
:10008000C5020008C5020008C50200080000000003
:10009000000000000000000000000000C502000891
:1000A000C5020008C5020008C5020008C502000814
:1000B000C5020008C5020008C5020008C502000804
:1000C000C5020008C5020008C5020008C5020008F4
:1000D000C5020008210B0008C5020008000000004E
:1000E000C5020008C5020008C502000800000000A3
:1000F000000000000000000000000000C502000831
:1001000000000000C5020008C5020008C502000882
:1001100000000000000000000000000000000000DF
:10012000C5020008C5020008C5020008C502000893
:10013000C5020008000000000000000000000000F0
:10014000000000000000000000000000C5020008E0
:10015000C5020008C5020008C5020008C502000863
:10016000C5020008C50200080000000000000000F1
:10017000000000000000000000000000000000007F
:1001800000000000C50200080000000000000000A0
:10019000C502000807B500F0B3FB274B2748834290
:1001A00026D3274B274900208B422DD301F06CF832
:1001B000254E264C01A9684600F09AFBA41BA4100A
:1001C0000025AC4229DC224E224CA41BA4100025A1
:1001D000AC4227DCDDE9000101F0C6F81E4D1F4CE2
:1001E000641B0646A410002C21DC304600F07CFB8A
:1001F000D3E900120C3353F8044C891A9442CED937
:10020000555815600432F9E753F8082B53F8044C9D
:100210009442C9D910600432FAE756F8253098475D
:100220000135CEE756F8253098470135D0E7013C37
:1002300055F824309847D6E7C8020008E0020008C5
:10024000E0020008F0020008F0020008F0020008D6
:10025000F0020008F0020008F0020008F0020008B6
:1002600014480047FEE71EF0040F0CBFEFF30880B0
:10027000EFF309807146104A1047FEE7FEE71EF0D3
:10028000040F0CBFEFF30880EFF3098071460B4AAF
:100290001047FEE71EF0040F0CBFEFF30880EFF3EA
:1002A00009807146064A1047FEE7FEE7FEE7FEE7D3
:1002B00070470000950100087B02000893020008C7
:0602C000A9020008FEE7A0
:1002C80034180008000000202C0000203418000812
:1002D80000000010000000102C0000203C0100204D
:0802E8000000001000000010EE
:1002F00010B5084B044618684FF47A73B0FBF3F05E
:1003000000F070F8002221464FF0FF3000F036F880
:10031000002010BD0800002008B50B4B1A6842F4FD
:1003200000721A601A6842F480621A601A6842F415
:1003300080721A60032000F00FF80F20FFF7D8FF3B
:1003400001F0E0F8002008BD003C0240014B1868B5
:10035000704700BF3C000020074AD36823F4E063E5
:100360001B041B0C43F0BF63000243F4003300F492
:10037000E0600343D360704700ED00E0174B70B5B9
:10038000DC68C4F30224C4F10705042D04F104035E
:1003900028BF04254FF0FF36062B06FA05F38CBF65
:1003A000033C002421EA0303A34006FA04F422EAF2
:1003B0000404002843EA0403A8BF00F160404FEAA8
:1003C0000313BCBF00F00F00054ADBB2AABF00F563
:1003D0006140135480F8003370BD00BF00ED00E0B1
:1003E00014ED00E00138B0F1807F0AD2064B074AD5
:1003F0005860F02182F823100020072298601A60CC
:1004000070470120704700BF10E000E000ED00E001
:10041000044B1A6804280CBF42F0040222F00402C4
:100420001A60704710E000E00368F7B50446D8078B
:1004300038D4236899076DD423681E0700F1B9806A
:1004400023685D0728D500230193A64BA64D1A6C9F
:1004500042F080521A641B6C03F080530193019B9D
:100460002B6843F480732B60FFF770FF06462B6800
:10047000DA0540F1C0809D4B227A1A70A368002BE8
:1004800000F0C780FFF762FF964D064641F28837BD
:100490002B6F9B0740F1B680A269002A40F0C9800B
:1004A000002015E08F4B9A6802F00C02042A07D056
:1004B0009A6802F00C02082A0CD15B685A0209D52E
:1004C000884B1B689B03B4D56368002BB1D1012016
:1004D00003B0F0BD864B22791A7063686BB1FFF7E9
:1004E00035FF804D06462B689F03A2D4FFF72EFFF1
:1004F000801B6428F7D90320EAE7FFF727FF794D2F
:1005000006462B68980394D5FFF720FF801B6428CC
:10051000F7D9F0E7734B9A6812F00C0F07D09A687E
:1005200002F00C02082A16D15B68590213D46D4BF5
:100530001A68920702D5E268012AC8D11868F82221
:1005400092FAA2F2B2FA82F122698A4020F0F8010E
:100550000A431A6070E7E268664BDAB101221A605A
:10056000FFF7F4FE5F4D06462B689B070CD5296804
:10057000F82393FAA3F3B3FA83F22369934021F0AB
:10058000F80213432B6057E7FFF7E0FE801B0228B9
:10059000EAD9B0E71A60FFF7D9FE524D06462B683C
:1005A0009F077FF549AFFFF7D1FE801B0228F6D9E0
:1005B000A1E76269504B7AB101221A60FFF7C6FECB
:1005C000484D06466B6F98073FF53AAFFFF7BEFE02
:1005D000801B0228F6D98EE71A60FFF7B7FE414D5F
:1005E00006466B6F99077FF52BAFFFF7AFFE801BB9
:1005F0000228F6D97FE7FFF7A9FE801B02287FF6C5
:1006000036AF78E7FFF7A2FE801BB8427FF640AF17
:1006100071E7FFF79BFE334D064641F288372B6F9B
:1006200098077FF539AFFFF791FE801BB842F6D9E6
:1006300061E72C4DAB6803F00C03082B3FF447AF88
:100640002E4E0023022A33603ED1FFF77FFE07467D
:100650002B68990132D447F6C07797FAA7F74FF481
:100660004032B7FA87F792FAA2F24FF07061B2FA0D
:1006700082F091FAA1F1D4E907321343626A02FAD7
:1006800007F7A26A5208013A82403B431343E26AE9
:10069000144CB1FA81F102FA01F10B436B600123B2
:1006A0003360FFF753FE054623689A013FF5F8AE25
:1006B000FFF74CFE401B0228F6D91CE7FFF746FE69
:1006C000C01B0228C4D916E7FFF740FE04462B687A
:1006D0009B017FF5E5AEFFF739FE001B0228F6D936
:1006E00009E700BF00380240007000407038024047
:1006F0000238024000004742800E474260004742F5
:10070000194A936803F00C03042B10B503D0082B8F
:1007100003D0164800E0164810BD5168536801F038
:100720003F0113F4800F47F6C074536894FAA4F0A5
:10073000B0FA80F003EA040323FA00F314BF0C4874
:100740000A48B0FBF1F05843074B4FF440325B6866
:1007500092FAA2F2B2FA82F203F44033D3400133A8
:100760005B00B0FBF3F0D7E7003802400024F40050
:1007700080A81201554B1A6802F00F028A422DE937
:10078000F04105460E462FD32A68940736D4D00789
:100790003CD44E4B1A6802F00F02B24200F286803F
:1007A0002A68510700F18A80130707D5484A29694A
:1007B000936823F4604343EAC1039360FFF7A0FF0B
:1007C000434BF0229B6892FAA2F2B2FA82F203F053
:1007D000F003D3403F4AD35CD8403F4B18600F2012
:1007E000FFF786FD002007E0CAB21A701B6803F00D
:1007F0000F038B42C8D00120BDE8F0813449A868BE
:100800008B6823F0F00303438B60C0E76A68304BCA
:10081000012A1DD11B6813F4003FECD02C4CA368B7
:1008200023F003031343A360FFF790FD6B68012BD4
:10083000074641F2883815D1A36803F00C03042B56
:10084000A7D0FFF783FDC01B4045F5D90320D3E7B0
:10085000911E01291B6802D813F0007FDDE713F019
:10086000020FDAE7022B0AD1A36803F00C03082B6E
:100870008FD0FFF76BFDC01B4045F5D9E6E7032B92
:100880000FD1A36803F00C030C2B82D0FFF75EFDA1
:10089000C01B4045F5D9D9E7FFF758FDC01B4045BF
:1008A000D4D8A36813F00C0FF6D172E7F2B21A7025
:1008B0001B6803F00F03B3429DD171E70449E86858
:1008C0008B6823F4E05303438B606DE7003C0240E8
:1008D000003802400818000808000020014B186882
:1008E000704700BF0800002008B500F015F80000B0
:1008F00001230360014B0B60704700BF0000002024
:1009000008B500F01BF8024B024A9A6008BD00BF10
:1009100000ED00E000000008BFF34F8F0549064BD3
:10092000CA6802F4E0621343CB60BFF34F8F00BF8D
:10093000FDE700BF00ED00E00400FA050C4B1A686B
:10094000002142F001021A6099601A6822F0847254
:1009500022F480321A60074A5A601A6822F4802210
:100960001A60D960044B4FF000629A60704700BF74
:10097000003802401030002400ED00E0174A18490A
:10098000936803F00C03042B10B50DD0082B0DD089
:10099000144B0B60114B144A9B68C3F30313D25CD6
:1009A0000B68D3400B6010BD104BF2E754685068E1
:1009B00052686302C2F3881200F03F004CBF0B4B39
:1009C000084BB3FBF0F35343044A5268C2F30142AD
:1009D00001325200B3FBF2F3DBE700BF0038024004
:1009E000080000200024F4001818000880A8120154
:1009F000F8B5C5792C4C064695B1012D25D0337933
:100A0000ED0345EA0335E560B379012B42D038D3D5
:100A1000022B3BD073791B03236100232360F8BDB5
:100A200003681FA1D1E900019A009B0F00F06CFD43
:100A30006422B0FBF2F102FB11031B013233B3FB62
:100A4000F2F303EB0113A360D9E7026800219218C7
:100A500041EB010312A1D1E9000100F055FD642131
:100A6000B0FBF1F701FB1703DB003233B3FBF1F30B
:100A700003F007025B0002EB071203F4F873134460
:100A8000E1E7E36843F00803E360C3E7E36843F0AA
:100A90000803E360E36843F00403F5E7AFF3008085
:100AA0000084D7170000000000100140044BDA68F2
:100AB00042F40052DA60DA6842F02002DA607047ED
:100AC00000100140044BDA6822F40052DA60DA6860
:100AD00022F02002DA60704700100140064A1346F7
:100AE00011680906FCD550601A685206FCD51A68D0
:100AF00022F040021A6070470010014038B50546E8
:100B00000024E3B20134E85C00B938BDFFF7E6FF2A
:100B1000F7E70000014B1860704700BF300000206D
:100B2000024B00221A60024B1B681847001001405C
:100B300030000020024A136823F00403136070475A
:100B400010E000E0054B1A6822F001021A60002252
:100B50009A601A6842F001021A60704710E000E0E3
:100B6000054B1A6822F001021A6000229A601A6886
:100B700022F002021A60704710E000E0074B196093
:100B8000074B00229A6058601A6842F001021A600E
:100B90001A6842F002021A60704700BF3400002059
:100BA00010E000E0024B1B6803B11847704700BF1C
:100BB00034000020064B9A6822F001029A609A687D
:100BC00022F002029A601A6842F001021A6070472D
:100BD0000038024004282BD8DFE800F0030B131B79
:100BE0002300144A0123106B03FA01F1014311633E
:100BF0007047104A0123506B03FA01F1014351631E
:100C000070470C4A0123106C03FA01F1014311648F
:100C10007047084A0123506C03FA01F10143516403
:100C20007047044A0123906C03FA01F10143916477
:100C3000704700BF00380240042830D8DFE800F0D9
:100C4000030C151E270016480122036B02FA01F15E
:100C500023EA01010163704711480122436B02FA44
:100C600001F123EA0101416370470D480122036C41
:100C700002FA01F123EA01010164704708480122E8
:100C8000436C02FA01F123EA010141647047044810
:100C90000122836C02FA01F123EA010181647047A9
:100CA000003802404209012300F01F0003FA00F05F
:100CB000014B43F82200704700E100E043090122A4
:100CC00000F01F0002FA00F02033024A42F823002D
:100CD000704700BF00E100E0012810B511D002D339
:100CE000022810D010BD094B1868490003248C401D
:100CF00020EA04001860186802FA01F10143196043
:100D0000F0E7034BF0E7034BEEE700BF00000240C3
:100D10000004024000080240012A13D1012809D032
:100D200002D302280CD07047124B58688A40024305
:100D30005A607047104B5A6888401043586070479B
:100D40000E4BF2E762B901280BD002D302280FD074
:100D500070470848436801228A4023EA0202426041
:100D60007047054A5368884023EA00005060704786
:100D70000248EFE700000240000402400008024081
:100D8000012810B511D002D3022810D010BD094B94
:100D90009868490003248C4020EA04009860986811
:100DA00002FA01F101439960F0E7034BF0E7034BCE
:100DB000EEE700BF000002400004024000080240CD
:100DC000012810B511D002D3022810D010BD094B54
:100DD000D868490003248C4020EA0400D860D86811
:100DE00002FA01F10143D960F0E7034BF0E7034B4E
:100DF000EEE700BF0000024000040240000802408D
:100E0000012A13D1012809D002D302280CD070473F
:100E1000124B58698A4002435A617047104B5A6915
:100E200088401043586170470E4BF2E762B90128C1
:100E30000BD002D302280FD0704708484369012223
:100E40008A4023EA020242617047054A536988409A
:100E500023EA0000506170470248EFE700000240BB
:100E60000004024000080240072910B517D80128E5
:100E700011D002D3022810D010BD164B186A890079
:100E80000F248C4020EA04001862186A02FA01F16B
:100E900001431962F0E7104BF0E7104BEEE7083919
:100EA000CBB2072BE8D8012812D003D30228E3D114
:100EB0000A4B00E0074B586A89000F248C4020EA57
:100EC00004005862586A02FA01F101435962D3E7FB
:100ED000014BF0E70000024000040240000802401D
:100EE00010B50446827841780078FFF7F5FEE27885
:100EF00061782078FFF710FF227961782078FFF77A
:100F00003FFF627961782078FFF75AFFA279617814
:100F10002078BDE81040FFF7A7BF0000144A134631
:100F2000D168C903FCD411690029BFBF11495160C0
:100F300001F1883151601A6922F078021A611A6948
:100F400042EAC00018611A6942F002021A611A6985
:100F500042F480321A61064BDA68D203FCD4DA68B4
:100F600042F00102DA601A6922F002021A61704747
:100F7000003C02402301674538B504460D46AC42AB
:100F800000D938BD20460134FFF7C8FFE4B2F6E7C8
:100F900030B5184C2346E568ED03FCD42569002DD7
:100FA000BFBF154D656005F1883565601C6924F487
:100FB00040741C611C6944F480741C611C6944F019
:100FC00001041C610B4B01EB4202401A914204D117
:100FD0001A6922F001021A6130BD441831F8025B2F
:100FE0002580DC68E403FCD4DC6844F00104DC60A8
:100FF000ECE700BF003C024023016745164A10B5EC
:1010000013460446D168C903FCD411690029BFBF47
:101010001249516001F1883151601A6922F440721D
:101020001A611A6942F480721A611A6942F0010267
:101030001A610120FFF772FF094B1C80064BDA682A
:10104000D203FCD4DA6842F00102DA601A6922F0B5
:1010500001021A6110BD00BF003C02402301674538
:1010600000400008A0F130030246D8B2092808D990
:10107000A2F14103052B03D8A2F13700C0B270479B
:10108000002070472DE9F74F0025394FDFF8E48045
:1010900081462E463223A9B203FB01910B7A312BF4
:1010A00002D103B0BDE8F08F4878FFF7DBFF0446BC
:1010B0008878FFF7D7FF40EA0414C878FFF7D2FF1B
:1010C00000900879FFF7CEFF83464879FFF7CAFF03
:1010D00082468879FFF7C6FF3A88009B41F2111CCF
:1010E0009445E4B218D140F0006040EA033646EA85
:1010F0000B2646EA0A16640809314FF0000B5FFA26
:101100008BF3A34201F1040110D32246414630463D
:10111000FFF73EFF0135BDE73A8842F2222C9445A5
:10112000E9D140F0006040F40030DEE711F8040C33
:10113000FFF798FF019011F8030CFFF793FF009061
:1011400011F8020CFFF78EFF824611F8010CFFF731
:1011500089FF019A009B4FEA0A3A4AEA021A4AEAD0
:10116000030A4AEA002028F81B000BF1010BC6E72E
:1011700000400008400000202DE9F8430646407872
:10118000FFF770FF0146B078FFF76CFF40EA0111EE
:10119000053101F0FF014FF00008444601F1FF392D
:1011A0005FFA88F54D4508F1010814DB06EB4103B1
:1011B000644213F8010CFFF755FF054616F81100BD
:1011C000FFF750FF40EA0510C0B2E4B2031B5842DB
:1011D0005841BDE8F88306EB45056878FFF742FF04
:1011E0000746A878FFF73EFF40EA07100444E4B240
:1011F000D6E7000070B594B00024214B01941A6C1E
:1012000042F080521A641B6C03F080530193019BDF
:101210001C4B02941A6842F440421A601B6803F4A3
:1012200040430293029B01234FF48002CDE908332F
:101230001223CDE90F2304264FF4A8730225CDE92C
:10124000113608A8072313930E95FFF7EDF80F2327
:101250002946CDE9033503A84FF48053CDE9063480
:101260000594FFF787FAFFF739FB4FF47A73B0FB69
:10127000F3F0FFF7B7F83046FFF7CAF814B070BDC7
:10128000003802400070004008B5FFF745F8FFF74E
:10129000B1FFBDE80840FFF771BB0000094A0A48EA
:1012A000138801331BB210B51380084B5968084BE3
:1012B0001B8812881BB2322412B204FB0303C9B28A
:1012C000995410BD2A0000200801002000100140A0
:1012D0003A000020014B01221A70704738000020AC
:1012E00010B5FFF73DFCFFF7EDFB0F210420FFF7E2
:1012F000A3FC00210846FFF79FFC04210320FFF711
:101300009BFC2520FFF7DAFC114B1A8841F21111E2
:10131000914204D01A8845F25551914207D10D4BA4
:101320000D4A1A600D4B1B68BDE8104018471A881B
:1013300042F22221914204D01B884AF6AA229A4204
:1013400004D1044B064A1A60064BECE710BD00BFFF
:101350000040000808ED00E000800008048000085C
:10136000000002080400020880B5FFF723FCFFF725
:10137000E1FB00210846FFF72DFC0F210420FFF7B9
:1013800029FC04210320FFF725FC2520FFF78AFC18
:101390004E484F4DDFF86881FFF7BCFB4D48FFF723
:1013A00027FBFFF783FB4C48FFF79AFD4B48FFF7FD
:1013B00097FD4B48FFF794FD012211460020FFF7EF
:1013C0001FFD48494848FFF7D9FB2E4698F80030E2
:1013D000012B01D1FFF784FF444F2A88444C3B88FE
:1013E00012B24FF032091BB209FB0242D35C232B2D
:1013F0001BD1288810FB09F02044FFF7BDFE002810
:1014000048D02B883A883B481BB209FB034312B2F1
:101410000E219954FFF772FB4FF6FF733B802B8828
:1014200001331BB22B80FFF78DFB338832221BB2B6
:1014300002FB03431B7A312BC8D133881BB202FB5A
:1014400003435B7A462BC1D133881BB202FB0344B2
:10145000A37A462BBAD12748FFF750FB4FF6FF710E
:101460000022254B398032801888814216D1002213
:1014700001211046FFF7C4FC41F21110FFF7BEFD39
:1014800004210220FFF778FD1948FFF7FBFDFFF765
:1014900027FF9BE71948FFF731FBC6E7198845F29C
:1014A000555088420BD110460121FFF7A9FC42F2AA
:1014B0002220FFF7A3FD0520FFF730FDE4E71B889E
:1014C0004AF6AA229A4281D1D1E700BF9D120008B4
:1014D0003A0000200C0000201B0000201400002017
:1014E00022000020D5120008809698002A000020D3
:1014F00008010020291800080040000828180008EA
:10150000380000207047000053B94AB9002908BFCD
:1015100000281CBF4FF0FF314FF0FF3000F072B9D0
:10152000ADF1080C6DE904CE00F006F8DDF804E03A
:10153000DDE9022304B070472DE9F047089E044618
:101540008846002B4BD18A42154667D9B2FA82F2FF
:101550004AB1C2F1200701FA02F320FA07F79540D9
:1015600047EA030894404FEA154E230CB8FBFEF7F8
:101570001FFA85FC0EFB178843EA084307FB0CF1B2
:10158000994209D9EB1807F1FF3080F01B8199428D
:1015900040F21881023F2B445B1AA4B2B3FBFEF069
:1015A0000EFB103344EA034400FB0CFCA44509D9AC
:1015B0002C1900F1FF3380F00781A44540F204812B
:1015C00002382C4440EA0740A4EB0C0400271EB16B
:1015D000D4400023C6E900433946BDE8F0878B427A
:1015E00009D9002E00F0EB800027C6E9000138463B
:1015F0003946BDE8F087B3FA83F7002F47D18B4215
:1016000002D3824200F2FA80841A61EB03030120C4
:101610009846002EE0D0C6E90048DDE702B9FFDEBB
:10162000B2FA82F2002A40F08F80491B4FEA154E31
:101630001FFA85F80127B1FBFEFC230C0EFB1C11E1
:1016400043EA014308FB0CF1994207D9EB180CF16E
:10165000FF3002D2994200F2CD808446591AA3B2DB
:10166000B1FBFEF00EFB101443EA044408FB00F843
:10167000A04507D92C1900F1FF3302D2A04500F292
:10168000B6801846A4EB080440EA0C409FE7C7F177
:10169000200CBB4022FA0CFE4EEA030E01FA07F4BE
:1016A00020FA0CF521FA0CF34FEA1E482543B3FB50
:1016B000F8F92C0C08FB19331FFA8EFA44EA03439D
:1016C00009FB0AF49C4202FA07F200FA07F10BD96F
:1016D0001EEB030309F1FF3080F087809C4240F24B
:1016E0008480A9F1020973441B1BADB2B3FBF8F06F
:1016F00008FB103345EA034400FB0AFAA24508D967
:101700001EEB040400F1FF336BD2A24569D9023805
:10171000744440EA0940A0FB0289A4EB0A044C454A
:10172000C2464B4654D351D0002E69D0B1EB0A05C6
:1017300064EB030404FA0CFCFD40FC404CEA050594
:10174000C6E90054002747E7C2F1200320FA03F757
:10175000954001FA02F021FA03F34FEA154E38439F
:10176000010CB3FBFEF71FFA85F80EFB173341EAB5
:10177000034107FB08F38B4204FA02F407D9691806
:1017800007F1FF3C2FD28B422DD9023F2944CB1ABF
:1017900081B2B3FBFEF00EFB103341EA034100FBC4
:1017A00008F38B4207D9691800F1FF3C17D28B422E
:1017B00015D902382944C91A40EA07473BE737469A
:1017C000304609E70746E7E61846FBE64145ABD257
:1017D000B8EB020A69EB0E0201381346A4E7604633
:1017E000E9E7184695E76746D1E781467CE7023886
:1017F0002C4447E7ACF1020C2B442FE7384608E7AE
:101800003746E9E6704700BF00000000010203040C
:1018100001020304060708090000000000000000A0
:0C18200001020304060708096E6F6B004C
:08182C000CFDFF7F010000002C
:101834002C000020000000000024F400802500009B
:1018440000000201000A0200000007000902000073
:0C185400000700010100000000FFFFFF82
:040000050800019559
:00000001FF
